:100000000C9435000C945D000C945D000C945D0024
:100010000C945D000C945D000C945D000C945D00EC
:100020000C945D000C945D000C945D000C945D00DC
:100030000C945D000C945D000C945D000C945D00CC
:100040000C94C5020C945D000C94DC040C940E0519
:100050000C945D000C945D000C945D000C945D00AC
:100060000C945D000C945D003E0511241FBECFEF83
:10007000D8E0DEBFCDBF13E0A0E0B1E0ECEAFDE0E8
:1000800002C005900D92A231B107D9F723E0A2E199
:10009000B3E001C01D92AC3CB207E1F710E0CAE644
:1000A000D0E004C02297FE010E94D006C836D107D6
:1000B000C9F70E9482050C94D4060C940000CF93DB
:1000C000DF9320E036E940E050E063E070E080E25A
:1000D00093E00E94B80182E091E09F938F93C0E289
:1000E000D3E0DF93CF930E94990281E391E09F9345
:1000F0008F93DF93CF930E94990284E091E09F93C6
:100100008F93DF93CF930E94990288EE90E09093B3
:100110001F0380931E0387EC9DE790931D0380933C
:100120001C038CE095ECACEEB5E080931803909343
:100130001903A0931A03B0931B038DED9FEAA0E06F
:10014000B0E08093140390931503A0931603B0932B
:10015000170381E080931303109212038DB79EB7AB
:100160000C960FB6F8949EBF0FBE8DBFDF91CF9156
:100170000895CF93DF9380911D038F9380911C038B
:100180008F9380911F038F9380911E038F938AE535
:1001900091E09F938F93C0E2D3E0DF93CF930E94CF
:1001A000990280911E0390911F039F938F939F93B9
:1001B0008F9385E891E09F938F93DF93CF930E9475
:1001C000990280911C0390911D039F938F939F939D
:1001D0008F938BEA91E09F938F93DF93CF930E944D
:1001E000990280911E0390911F039F938F939F9379
:1001F0008F9381ED91E09F938F93DF93CF930E9434
:10020000990280911C0390911D032DB73EB7205E8B
:100210003F4F0FB6F8943EBF0FBE2DBF9F938F93F5
:100220009F938F938AEF91E09F938F93DF93CF9368
:100230000E949902809117038F93809116038F93E8
:10024000809115038F93809114038F9380911B03EA
:100250008F9380911A038F93809119038F938091CC
:1002600018038F9383E292E09F938F93DF93CF9352
:100270000E949902809112031F928F938091130321
:100280001F928F938DE492E09F938F93DF93CF9390
:100290000E949902809101018F93809100018F93B8
:1002A00086E792E09F938F93DF93CF930E9499020A
:1002B0008DB79EB782960FB6F8949EBF0FBE8DBFC6
:1002C000809112031F928F9383E892E09F938F9304
:1002D000DF93CF930E947702809112031F928F9336
:1002E000809113031F928F93809117038F938091B6
:1002F00016038F93809115038F93809114038F932E
:1003000080911B038F9380911A038F93809119031F
:100310008F93809118038F9380911D038F93809109
:100320001C038F9380911F038F9380911E038F93E3
:100330008FE992E09F938F93DF93CF930E94AF0258
:1003400088EB92E09F938F93DF93CF930E94990263
:100350008DB79EB74E960FB6F8949EBF0FBE8DBF59
:1003600068E873E180E090E0DF91CF910C94320374
:10037000FB01BA01A9019F01E530F10514F024E069
:1003800030E037FF02C020E030E0FC013183208301
:10039000428353836483758326E08FE293E00C9459
:1003A0007A04EF92FF920F931F93CF93DF938B0109
:1003B000EA01F8018081882309F492C0853209F0AE
:1003C00084C078018FEFE81AF80AF8018181882348
:1003D00009F486C0853231F465E28FE293E00E9431
:1003E000D1057AC0833731F48E010E5F1F4F6881CB
:1003F000798153C0843611F0893669F48E010E5F1D
:100400001F4F688179814AE050E08FE293E00E94BB
:100410007B06E80161C0883741F0883571F464EEED
:1004200072E08FE293E00E94CF058E010E5F1F4FB6
:100430006881798140E150E0E8CF823641F0823432
:1004400071F467EE72E08FE293E00E94CF058E01B7
:100450000E5F1F4F6881798142E050E0D6CF8C3625
:1004600071F48E010C5F1F4F488159816A817B8135
:100470002AE030E08FE293E00E943106CACF833653
:1004800009F4BCCF843789F48E010E5F1F4F888139
:100490009981019739F46AEE72E08FE293E00E944D
:1004A000CF05B7CF6CEE72E0F8CF843569F48E01DA
:1004B0000E5F1F4F88819981019719F46EEE72E0EB
:1004C000ECCF63EF72E0E9CF8701F80160818FE242
:1004D00093E00E94D105780187010F5F1F4F69CF1C
:1004E000DF91CF911F910F91FF90EF9008950F939F
:1004F0001F93CF93DF93CDB7DEB70F811885F80137
:1005000080819181181619067CF440E050E069EF73
:1005100072E0C8010E94D101AE01455F5F4F69855D
:100520007A85C8010E94D101DF91CF911F910F916F
:100530000895CF93DF93CDB7DEB78D819E81FC0107
:1005400020813181223031053CF0AE01475F5F4FA1
:100550006F8178850E94D101DF91CF910895CF936B
:10056000DF93CDB7DEB78D819E81FC012081318183
:10057000233031053CF0AE01475F5F4F6F817885D6
:100580000E94D101DF91CF9108951F920F920FB673
:100590000F9211242F933F938F939F93AF93BF9309
:1005A0008091270390912803A0912903B0912A03F9
:1005B0003091260323E0230F2D3720F40196A11D4F
:1005C000B11D05C026E8230F0296A11DB11D209381
:1005D00026038093270390932803A0932903B093C5
:1005E0002A0380912B0390912C03A0912D03B091AD
:1005F0002E030196A11DB11D80932B0390932C0314
:10060000A0932D03B0932E03BF91AF919F918F9133
:100610003F912F910F900FBE0F901F9018953FB7ED
:10062000F89480912B0390912C03A0912D03B0910D
:100630002E0326B5A89B05C02F3F19F00196A11DDA
:10064000B11D3FBF6627782F892F9A2F620F711D2A
:10065000811D911D42E0660F771F881F991F4A95E3
:10066000D1F70895CF92DF92EF92FF92CF93DF936D
:100670006B017C010E940F03EB01C114D104E10462
:10068000F10489F00E9483060E940F036C1B7D0B0E
:10069000683E734090F381E0C81AD108E108F10880
:1006A000C851DC4FEACFDF91CF91FF90EF90DF9000
:1006B000CF900895789484B5826084BD84B58160BC
:1006C00084BD85B5826085BD85B5816085BDEEE65A
:1006D000F0E0808181608083E1E8F0E01082808139
:1006E00082608083808181608083E0E8F0E08081A7
:1006F00081608083E1EBF0E0808184608083E0EBC7
:10070000F0E0808181608083EAE7F0E080818460AE
:10071000808380818260808380818160808380810A
:10072000806880831092C1000895FC01818D228D24
:1007300090E0805C9F4F821B910960E470E00E9412
:1007400084060895FC01918D828D981731F0828D79
:10075000E80FF11D858D90E008958FEF9FEF0895CC
:10076000FC01918D828D981761F0828DDF01A80FB9
:10077000B11D5D968C91928D9F5F9F73928F90E0DB
:1007800008958FEF9FEF089584E395E0892B49F05A
:1007900080E090E0892B29F00E94340581110C94AF
:1007A00000000895FC01848DDF01A80FB11DA35A3C
:1007B000BF4F2C91848D90E001968F739927848F81
:1007C000A689B7892C93A089B1898C9180648C9378
:1007D000938D848D981306C00288F389E02D808163
:1007E0008F7D80830895CF93DF93EC01888D8823DC
:1007F000C9F0EA89FB89808185FD05C0A889B9898E
:100800008C9186FD0FC00FB607FCF5CF808185FF68
:10081000F2CFA889B9898C9185FFEDCFCE010E94D6
:10082000D203E7CFDF91CF910895CF92DF92FF926D
:100830000F931F93CF93DF931F92CDB7DEB76C0159
:10084000DC015B969C915B975C968C915C9798130E
:1008500007C05096ED91FC915197808185FD32C083
:10086000F601038D10E00F5F1F4F0F731127F02E5D
:10087000F601848DF81211C00FB607FCF9CFD6012E
:100880005096ED91FC915197808185FFF1CFC60183
:1008900069830E94D2036981EBCF838DE80FF11D3C
:1008A000E35AFF4F6083D6015B960C935B97529699
:1008B000ED91FC91539780818062808381E058960E
:1008C0008C930DC0D6015696ED91FC91579760839D
:1008D0005096ED91FC91519780818064808381E0F6
:1008E00090E00F90DF91CF911F910F91FF90DF90DB
:1008F000CF900895BF92CF92DF92EF92FF92CF9365
:10090000DF93EC016A017B01B22EE889F98982E06C
:100910008083411581EE580761057105A1F060E003
:1009200079E08DE390E0A70196010E94980621509E
:100930003109410951095695479537952795211554
:1009400080E1380798F0E889F989108260E874E856
:100950008EE190E0A70196010E949806215031098E
:10096000410951095695479537952795EC85FD85A1
:100970003083EE85FF852083188EEC89FD89B08257
:10098000EA89FB89808180618083EA89FB89808193
:1009900088608083EA89FB89808180688083EA8916
:1009A000FB8980818F7D8083DF91CF91FF90EF90D5
:1009B000DF90CF90BF9008951F920F920FB60F92C5
:1009C00011242F938F939F93EF93FF93E0913F0315
:1009D000F09140038081E0914503F091460382FD50
:1009E00012C09081809148038F5F8F7320914903DB
:1009F000821751F0E0914803F0E0E15DFC4F958FE4
:100A00008093480301C08081FF91EF919F918F9166
:100A10002F910F900FBE0F901F9018951F920F925D
:100A20000FB60F9211242F933F934F935F936F93C1
:100A30007F938F939F93AF93BF93EF93FF938FE237
:100A400093E00E94D203FF91EF91BF91AF919F91EC
:100A50008F917F916F915F914F913F912F910F9067
:100A60000FBE0F901F9018958FE293E00E949503A0
:100A700021E0892B09F420E0822F0895109232039F
:100A80001092310388EE93E0A0E0B0E0809333034E
:100A900090933403A0933503B093360385E093E03D
:100AA0009093300380932F0385EC90E090933C0368
:100AB00080933B0384EC90E090933E0380933D034E
:100AC00080EC90E09093400380933F0381EC90E0B2
:100AD000909342038093410382EC90E0909344030F
:100AE0008093430386EC90E0909346038093450304
:100AF000109248031092490310924A0310924B033C
:100B0000089508950E945A030E9481050E945F0083
:100B1000C4ECD3E00E94B9002097E1F30E94C40323
:100B2000F9CFCF92DF92EF92FF920F931F93CF9363
:100B3000DF936C017A01EB01E60EF71E00E010E096
:100B4000CE15DF0561F06991D601ED91FC91019020
:100B5000F081E02DC6010995080F191FF1CFC801DA
:100B6000DF91CF911F910F91FF90EF90DF90CF9089
:100B700008956115710581F0DB010D900020E9F702
:100B8000AD0141505109461B570BDC01ED91FC9121
:100B90000280F381E02D099480E090E008950C94A8
:100BA000B905DC01ED91FC910190F081E02D0994F3
:100BB0008F929F92AF92BF92CF92DF92EF92FF926D
:100BC0000F931F93CF93DF93CDB7DEB7A1970FB6E7
:100BD000F894DEBF0FBECDBF7C01C42EE52FCB0144
:100BE000D22E19A221E02D1510F02AE0D22E8E016E
:100BF0000F5D1F4F8D2C912CA12CB12C6C2D7E2FB5
:100C0000A50194010E9498068C2DD29E8019112472
:100C1000015011098A3014F4805D01C0895CF8012B
:100C20008083211531054105510521F0C22EE32FA6
:100C3000CA01E4CFB801C7010E94B905A1960FB659
:100C4000F894DEBF0FBECDBFDF91CF911F910F9102
:100C5000FF90EF90DF90CF90BF90AF909F908F90DC
:100C60000895CF92DF92EF92FF920F931F93CF934D
:100C7000DF93EC016A017B012115310579F4E881EC
:100C8000F9810190F081E02D642FDF91CF911F91C8
:100C90000F91FF90EF90DF90CF9009942A303105AB
:100CA000E9F477FF1AC06DE20E94D1058C01442758
:100CB0005527BA014C195D096E097F092AE0CE015A
:100CC0000E94D805800F911FDF91CF911F910F9146
:100CD000FF90EF90DF90CF9008952AE0B701A60132
:100CE000CE01DF91CF911F910F91FF90EF90DF9098
:100CF000CF900C94D8059A01AB01662757FD6095FB
:100D0000762F0C943106089597FB072E16F4009465
:100D100007D077FD09D00E94BA0607FC05D03EF443
:100D2000909581959F4F0895709561957F4F089597
:100D3000A1E21A2EAA1BBB1BFD010DC0AA1FBB1FDF
:100D4000EE1FFF1FA217B307E407F50720F0A21B51
:100D5000B30BE40BF50B661F771F881F991F1A94BE
:100D600069F760957095809590959B01AC01BD01E8
:100D7000CF010895AA1BBB1B51E107C0AA1FBB1FCF
:100D8000A617B70710F0A61BB70B881F991F5A9517
:100D9000A9F780959095BC01CD010895EE0FFF1F36
:0C0DA0000590F491E02D0994F894FFCF29
:100DAC00D3020D0A2A2A2A2A2A2A2A2A2A2A2A2A53
:100DBC002A2A2A2A2A2A2A2A2A2A2A2A2A2A2A2A87
:100DCC002A2A2A2A2A2A2A2A2A2A2A2A2A2A0D0AB4
:100DDC00004D79206661766F72697465206F757449
:100DEC0070757420737475666620696E20667574F0
:100DFC00757265203A2D290D0A00446973706C6177
:100E0C0079206D7920696E746567657273206D79D0
:100E1C00496E74312025642C206D79496E74322012
:100E2C0025640D0A00446973706C6179206173202C
:100E3C00686578206D79496E74313D25782C206D6C
:100E4C0079496E74313D25580D0A00446973706CF4
:100E5C00617920617320686578206D79496E7432F0
:100E6C003D25782C206D79496E74323D25580D0A3C
:100E7C0000446973706C61792061732062696E61E2
:100E8C007279206D79496E74313D25622C206D7913
:100E9C00496E74313D25420D0A00446973706C61D2
:100EAC00792061732062696E617279206D79496E67
:100EBC0074323D25622C206D79496E74323D254289
:100ECC000D0A00446973706C6179206D79206C6F28
:100EDC006E6773206D794C6F6E673120256C2C20FA
:100EEC006D794C6F6E67323D256C0D0A0044697349
:100EFC00706C6179206D7920626F6F6C206D794216
:100F0C006F6F6C313D25742C206D79426F6F6C3294
:100F1C003D25540D0A004F75747075743A20257375
:100F2C000D0A006973207468697320616E20726504
:100F3C00616C206572726F723F2025540D0A00257A
:100F4C00642C2025642C20256C2C20256C2C202531
:100F5C00742C2025540D0A000D0A686176652066F4
:100F6C00756E20776974682074686973204C6F679C
:100F7C000D0A0074686973206973206120737472A0
:100F8C00696E67003078003062005400460074725D
:100F9C0075650066616C7365004552524F523A207C
:100FAC000000000000150491059503B003A203F3A3
:020FBC00030030
:00000001FF
