:100000000C945F000C9487000C9487000C9487007C
:100010000C9487000C9487000C9487000C94870044
:100020000C9487000C9487000C9487000C94870034
:100030000C9487000C9487000C9487000C94870024
:100040000C9447040C9487000C94F6060C94280733
:100050000C9487000C9487000C9487000C94870004
:100060000C9481020C94870000000008000201003B
:100070000003040700000000000000000102040863
:100080001020408001020408102001020408102002
:10009000040404040404040402020202020203032E
:1000A0000303030300000000250028002B000000CC
:1000B0000000240027002A00C8009F0158071124CF
:1000C0001FBECFEFD8E0DEBFCDBF11E0A0E0B1E0B2
:1000D000E2EFF3E102C005900D92A833B107D9F722
:1000E00022E0A8E3B1E001C01D92A03AB207E1F717
:1000F00010E0CEEBD0E004C02297FE010E94F3098D
:10010000C83BD107C9F70E949C070C94F7090C94CF
:10011000000026E040E051EE60E070E083E092E015
:100120000E94940688E391E00E94200463E288E341
:1001300091E00E94AF0360E188E391E00E94350402
:1001400060E071E083E092E00C940608CF93DF93C7
:1001500088E391E00E94C703EC016BE071E083E06B
:1001600092E00E94E9074AE050E0BE0183E092E09D
:100170000E947E0863E171E083E092E00E9406083D
:1001800068EE73E080E090E0DF91CF910C94B404CE
:1001900088E391E00C94AE0380916A0190E0209195
:1001A0006B01821B9109089520916B0180916A0176
:1001B000281750F4E22FF0E0E459FE4F808190E0E0
:1001C0002F5F20936B0108958FEF9FEF0895E091CB
:1001D0006B0180916A01E81730F4F0E0E459FE4FBA
:1001E000808190E008958FEF9FEF08950895CF925A
:1001F000DF92EF92FF920F931F93CF93DF937C01D7
:10020000CB018A0120914601222389F0EB016B0189
:10021000C40ED51ECC15DD0569F06991D701ED91AD
:10022000FC910190F081E02DC7010995F3CF642F77
:100230000E945802C801DF91CF911F910F91FF904A
:10024000EF90DF90CF900895CF93DF931F92CDB7BB
:10025000DEB76983209146012223D1F02091470126
:10026000203240F021E030E0FC013383228380E043
:1002700090E015C080914801E82FF0E0E75BFE4F69
:10028000998190838F5F809348018093470105C0D7
:1002900061E0CE0101960E94580281E090E00F904B
:1002A000DF91CF910895FC011382128248EE53E052
:1002B00060E070E044835583668377838CE191E04E
:1002C00091838083089510926B0110926A011092BD
:1002D0004801109247010C94A301862F413208F087
:1002E00040E26CE671E00E94C10110926B018093C4
:1002F0006A01089521E00C946D0181E0809346012C
:1003000060936901109248011092470108950C947E
:100310007D010F93062F21E04091470169E471E0D0
:10032000809169010E9405021092480110924701D4
:10033000109246010F91089561E00C9489018AE3BF
:1003400091E00C9453011092F90181E08093F70140
:100350001092F60161E082E10E94790561E083E19B
:100360000E947905E9EBF0E080818E7F80838081B7
:100370008D7F808388E48093B80085E48093BC00FF
:100380000895413208F03FC09091F9019111FCCFDE
:1003900091E09093F9012093F7012FEF20938C01C6
:1003A0001092D101240F2093D0019093F8019091E5
:1003B000F801880F892B8093F8018091F601813034
:1003C00041F41092F6018091F8018093BB0085EC16
:1003D00001C085EE8093BC008091F9018130E1F38A
:1003E0008091D101841710F44091D10122ED31E0C8
:1003F000FB01D9018A2F821B841718F48D918193F8
:10040000F9CF842F089580E008950F93413208F0CA
:1004100046C09091F9019111FCCF92E09093F901BF
:100420000093F7019FEF90938C011092D1014093BC
:10043000D001FB0162ED71E0DB019A2F961B94174E
:1004400018F491919D93F9CF1092F8019091F801D1
:10045000880F892B8093F8018091F601813041F457
:100460001092F6018091F8018093BB0085EC01C0E9
:1004700085EE8093BC00222321F08091F901823027
:10048000E1F380918C018F3F61F080918C0180328B
:1004900051F080918C01803341F483E007C081E00A
:1004A00005C080E003C082E001C084E00F910895A0
:1004B000613298F42091F901243089F46093AE01FF
:1004C000FC0180EB91E0DC012A2F281B261718F491
:1004D00021912D93F9CF80E0089581E0089582E085
:1004E000089585ED8093BC008091BC0084FDFCCF15
:1004F0001092F901089585EC8093BC001092F901E7
:1005000008951F920F920FB60F9211242F933F93CD
:100510004F935F936F937F938F939F93AF93BF930B
:10052000EF93FF938091B900887F803609F49CC0D7
:1005300068F5883209F45BC090F4803109F454C046
:1005400038F4882309F4F5C0883009F44DC0F5C0AB
:10055000883109F44CC0803209F45DC0EEC08034AB
:1005600009F468C048F4803309F455C0883309F0B1
:10057000E4C080938C01A8C0803509F44FC0883551
:1005800009F45DC0883409F0D8C0D5C0883909F4B1
:10059000C6C0A8F4883709F467C038F4883609F46F
:1005A00063C0803709F460C0C8C0883809F4B7C098
:1005B000803909F45FC0803809F0BFC05BC0803B60
:1005C00009F485C038F4803A09F466C0883A09F421
:1005D0007EC0B3C0803C09F4A6C0883C09F4A3C027
:1005E000883B09F489C0A9C08091F80110C090919E
:1005F000D1018091D001981770F5E091D10181E08F
:100600008E0F8093D101F0E0EE52FE4F80818093F7
:10061000BB0085EC85C080938C018DC0E091D10139
:1006200081E08E0F8093D1018091BB00F0E0EE520B
:10063000FE4F80839091D1018091D0016DC0E091F7
:10064000D10181E08E0F8093D1018091BB00F0E059
:10065000EE52FE4F80838091F70181116CC081E0E2
:100660008093F60184EA60C083E08093F9011092E0
:100670008D01CFCF80918D01803208F050C0E09184
:100680008D0181E08E0F80938D018091BB00F0E0A1
:10069000E257FE4F8083BDCF80918D01803230F4D0
:1006A000E0918D01F0E0E257FE4F10820E9471024E
:1006B00060918D0170E0E091F201F091F3018EE81C
:1006C00091E0099510928D010E947B0236C084E072
:1006D0008093F9011092AF011092AE01E091F40104
:1006E000F091F50109958091AE01811105C081E07D
:1006F0008093AE011092B001E091AF0181E08E0FC6
:100700008093AF01F0E0E055FE4F80818093BB0005
:100710009091AF018091AE01981708F47ACF85E8E7
:100720008093BC000AC085EC8093BC001092F90154
:1007300004C010928C010E947102FF91EF91BF9151
:10074000AF919F918F917F916F915F914F913F9169
:100750002F910F900FBE0F901F9018950895CF9373
:10076000DF93EC01633251F06C3571F4688361E022
:1007700081E10E94790581E0898306C0688360E099
:1007800081E10E9479051982DF91CF910895CF937D
:10079000DF93EC018981813071F46CE570E08AE3CC
:1007A00091E00E94870142E050E06CE570E08AE34E
:1007B00091E00E947A01898181110EC063E270E0AC
:1007C0008AE391E00E94870142E050E063E270E03A
:1007D0008AE391E00E947A018AE391E00E94D400CA
:1007E000D82F80E0C82F8AE391E00E94D400C82B64
:1007F000D92B8AE391E00E949C01BE0180E090E049
:100800000E9419092AE939E949E95FE30E9485084C
:100810000E94ED08CB01DF91CF910895CF93C62FB1
:10082000FC0160818AE391E00E947D016C2F8AE3E4
:1008300091E00E9424018AE391E0CF910C949C0105
:10084000CF93DF93EC018AE391E00E94630161E0C2
:10085000CE010E940E0461E081E10E94400561E04A
:1008600081E1DF91CF910C9479051F93CF93DF93B2
:10087000EC01162F6AE070E080E090E00E94B40482
:10088000612FCE01DF91CF911F910C940E041F9226
:100890000F920FB60F9211242F933F938F939F9334
:1008A000AF93BF938091FB019091FC01A091FD015A
:1008B000B091FE013091FA0123E0230F2D3720F48F
:1008C0000196A11DB11D05C026E8230F0296A11DAA
:1008D000B11D2093FA018093FB019093FC01A0933A
:1008E000FD01B093FE018091FF0190910002A09163
:1008F0000102B09102020196A11DB11D8093FF017A
:1009000090930002A0930102B0930202BF91AF91B5
:100910009F918F913F912F910F900FBE0F901F903D
:1009200018953FB7F8948091FF0190910002A09133
:100930000102B091020226B5A89B05C02F3F19F015
:100940000196A11DB11D3FBF6627782F892F9A2FD1
:10095000620F711D811D911D42E0660F771F881F78
:10096000991F4A95D1F70895CF92DF92EF92FF92A7
:10097000CF93DF936B017C010E949104EB01C114C2
:10098000D104E104F10489F00E9484080E949104DA
:100990006C1B7D0B683E734090F381E0C81AD10850
:1009A000E108F108C851DC4FEACFDF91CF91FF9009
:1009B000EF90DF90CF900895789484B5826084BDE5
:1009C00084B5816084BD85B5826085BD85B5816053
:1009D00085BDEEE6F0E0808181608083E1E8F0E0B3
:1009E0001082808182608083808181608083E0E8E2
:1009F000F0E0808181608083E1EBF0E080818460C1
:100A00008083E0EBF0E0808181608083EAE7F0E0C2
:100A10008081846080838081826080838081816026
:100A200080838081806880831092C1000895833024
:100A300081F028F4813099F08230A1F00895873058
:100A4000A9F08830B9F08430D1F4809180008F7D96
:100A500003C0809180008F7780938000089584B5D3
:100A60008F7702C084B58F7D84BD08958091B000DA
:100A70008F7703C08091B0008F7D8093B000089580
:100A8000CF93DF9390E0FC01E458FF4F2491FC01E9
:100A9000E057FF4F8491882349F190E0880F991F18
:100AA000FC01E255FF4FA591B4918C559F4FFC017D
:100AB000C591D4919FB7611108C0F8948C9120958D
:100AC00082238C93888182230AC0623051F4F89487
:100AD0008C91322F309583238C938881822B88834D
:100AE00004C0F8948C91822B8C939FBFDF91CF919F
:100AF00008950F931F93CF93DF931F92CDB7DEB767
:100B0000282F30E0F901E859FF4F8491F901E458AA
:100B1000FF4F1491F901E057FF4F04910023C9F0F2
:100B2000882321F069830E9417056981E02FF0E096
:100B3000EE0FFF1FEC55FF4FA591B4919FB7F894AE
:100B40008C91611103C01095812301C0812B8C937E
:100B50009FBF0F90DF91CF911F910F910895FC01DE
:100B6000818D228D90E0805C9F4F821B910960E413
:100B700070E00E94A7090895FC01918D828D98175D
:100B800031F0828DE80FF11D858D90E008958FEF93
:100B90009FEF0895FC01918D828D981761F0828DF1
:100BA000DF01A80FB11D5D968C91928D9F5F9F73A1
:100BB000928F90E008958FEF9FEF08958EE497E075
:100BC000892B49F080E090E0892B29F00E944E07A4
:100BD00081110C9400000895FC01848DDF01A80FA1
:100BE000B11DA35ABF4F2C91848D90E001968F7355
:100BF0009927848FA689B7892C93A089B1898C9174
:100C000080648C93938D848D981306C00288F38939
:100C1000E02D80818F7D80830895CF93DF93EC0159
:100C2000888D8823C9F0EA89FB89808185FD05C00C
:100C3000A889B9898C9186FD0FC00FB607FCF5CF46
:100C4000808185FFF2CFA889B9898C9185FFEDCF8E
:100C5000CE010E94EC05E7CFDF91CF910895CF92AE
:100C6000DF92FF920F931F93CF93DF931F92CDB725
:100C7000DEB76C01DC015B969C915B975C968C9176
:100C80005C97981307C05096ED91FC915197808125
:100C900085FD32C0F601038D10E00F5F1F4F0F730B
:100CA0001127F02EF601848DF81211C00FB607FC43
:100CB000F9CFD6015096ED91FC915197808185FF37
:100CC000F1CFC60169830E94EC056981EBCF838D6A
:100CD000E80FF11DE35AFF4F6083D6015B960C933A
:100CE0005B975296ED91FC9153978081806280834F
:100CF00081E058968C930DC0D6015696ED91FC91EB
:100D0000579760835096ED91FC9151978081806454
:100D1000808381E090E00F90DF91CF911F910F9140
:100D2000FF90DF90CF900895BF92CF92DF92EF9225
:100D3000FF92CF93DF93EC016A017B01B22EE88929
:100D4000F98982E08083411581EE580761057105BC
:100D5000A1F060E079E08DE390E0A70196010E94A8
:100D6000BB092150310941095109569547953795DD
:100D70002795211580E1380798F0E889F9891082D4
:100D800060E874E88EE190E0A70196010E94BB093B
:100D900021503109410951095695479537952795B5
:100DA000EC85FD853083EE85FF852083188EEC89E8
:100DB000FD89B082EA89FB89808180618083EA892C
:100DC000FB89808188608083EA89FB8980818068D3
:100DD0008083EA89FB8980818F7D8083DF91CF9139
:100DE000FF90EF90DF90CF90BF9008951F920F92E9
:100DF0000FB60F9211242F938F939F93EF93FF932E
:100E0000E0911302F09114028081E0911902F091B7
:100E10001A0282FD12C0908180911C028F5F8F7335
:100E200020911D02821751F0E0911C02F0E0ED5F6D
:100E3000FD4F958F80931C0201C08081FF91EF913F
:100E40009F918F912F910F900FBE0F901F9018952B
:100E50001F920F920FB60F9211242F933F934F932F
:100E60005F936F937F938F939F93AF93BF93EF9312
:100E7000FF9383E092E00E94EC05FF91EF91BF9118
:100E8000AF919F918F917F916F915F914F913F9122
:100E90002F910F900FBE0F901F90189583E092E056
:100EA0000E94AF0521E0892B09F420E0822F0895EC
:100EB000109206021092050288EE93E0A0E0B0E0E6
:100EC0008093070290930802A0930902B0930A024C
:100ED0008CE291E0909304028093030285EC90E011
:100EE0009093100280930F0284EC90E09093120292
:100EF0008093110280EC90E090931402809313028F
:100F000081EC90E0909316028093150282EC90E0C1
:100F1000909318028093170286EC90E090931A0247
:100F20008093190210921C0210921D0210921E0250
:100F300010921F02089508950E94DC040E949B07EE
:100F40000E948900CEEDD5E00E94A6002097E1F333
:100F50000E94DE05F9CFCF92DF92EF92FF920F93BE
:100F60001F93CF93DF936C017A01EB01E60EF71E1E
:100F700000E010E0CE15DF0561F06991D601ED913A
:100F8000FC910190F081E02DC6010995080F191F11
:100F9000F1CFC801DF91CF911F910F91FF90EF909A
:100FA000DF90CF9008956115710581F0DB010D9000
:100FB0000020E9F7AD0141505109461B570BDC01F8
:100FC000ED91FC910280F381E02D099480E090E0A6
:100FD00008950C94D307DC01ED91FC910190F08110
:100FE000E02D09940F931F93CF93DF93EC016DE0F5
:100FF0000E94EB078C016AE0CE010E94EB07800F94
:10100000911FDF91CF911F910F9108950F931F931F
:10101000CF93DF93EC010E94D3078C01CE010E9495
:10102000F207800F911FDF91CF911F910F910895CB
:101030008F929F92AF92BF92CF92DF92EF92FF92E8
:101040000F931F93CF93DF93CDB7DEB7A1970FB662
:10105000F894DEBF0FBECDBF7C01C42EE52FCB01BF
:10106000D22E19A221E02D1510F02AE0D22E8E01E9
:101070000F5D1F4F8D2C912CA12CB12C6C2D7E2F30
:10108000A50194010E94BB098C2DD29E80191124C8
:10109000015011098A3014F4805D01C0895CF801A7
:1010A0008083211531054105510521F0C22EE32F22
:1010B000CA01E4CFB801C7010E94D307A1960FB6B9
:1010C000F894DEBF0FBECDBFDF91CF911F910F917E
:1010D000FF90EF90DF90CF90BF90AF909F908F9058
:1010E00008952115310541F4DC01ED91FC91019049
:1010F000F081E02D642F09940C9418089A01AB013B
:1011000060E070E00C94710808950CD0E6C0DED069
:1011100040F0D5D030F021F45F3F19F0C7C0511135
:1011200010C1CAC0EBD098F39923C9F35523B1F38A
:10113000951B550BBB27AA2762177307840738F046
:101140009F5F5F4F220F331F441FAA1FA9F333D0A5
:101150000E2E3AF0E0E830D091505040E695001C59
:10116000CAF729D0FE2F27D0660F771F881FBB1F15
:10117000261737074807AB07B0E809F0BB0B802DEF
:10118000BF01FF2793585F4F2AF09E3F510568F03B
:101190008DC0D7C05F3FECF3983EDCF38695779522
:1011A0006795B795F7959F5FC9F7880F911D96953D
:1011B000879597F90895E1E0660F771F881FBB1F99
:1011C000621773078407BA0720F0621B730B840B46
:1011D000BA0BEE1F88F7E095089598D088F09F57D6
:1011E00090F0B92F9927B751A0F0D1F0660F771F73
:1011F000881F991F1AF0BA95C9F712C0B13081F053
:101200009FD0B1E008959CC0672F782F8827B85FE2
:1012100039F0B93FCCF3869577956795B395D9F7B3
:101220003EF490958095709561957F4F8F4F9F4FBD
:101230000895E89409C097FB3EF4909580957095C9
:1012400061957F4F8F4F9F4F9923A9F0F92F96E912
:10125000BB279395F695879577956795B795F11187
:10126000F8CFFAF4BB0F11F460FF1BC06F5F7F4F24
:101270008F4F9F4F16C0882311F096E911C0772336
:1012800021F09EE8872F762F05C0662371F096E83F
:10129000862F70E060E02AF09A95660F771F881F0E
:1012A000DAF7880F9695879597F9089597F99F67CC
:1012B00080E870E060E008959FEF80EC08950024DE
:1012C0000A941616170618060906089500240A94AB
:1012D00012161306140605060895092E0394000C31
:1012E00011F4882352F0BB0F40F4BF2B11F460FFC0
:1012F00004C06F5F7F4F8F4F9F4F089557FD9058E9
:10130000440F551F59F05F3F71F04795880F97FBC9
:10131000991F61F09F3F79F0879508951216130683
:101320001406551FF2CF4695F1DF08C016161706B2
:101330001806991FF1CF86957105610508940895E7
:10134000E894BB2766277727CB0197F9089597FB89
:10135000072E16F4009407D077FD09D00E94DD090E
:1013600007FC05D03EF4909581959F4F08957095A8
:1013700061957F4F0895A1E21A2EAA1BBB1BFD01A8
:101380000DC0AA1FBB1FEE1FFF1FA217B307E40764
:10139000F50720F0A21BB30BE40BF50B661F771FBC
:1013A000881F991F1A9469F760957095809590959C
:1013B0009B01AC01BD01CF010895AA1BBB1B51E1EC
:1013C00007C0AA1FBB1FA617B70710F0A61BB70BB5
:1013D000881F991F5A95A9F780959095BC01CD015A
:1013E0000895EE0FFF1F0590F491E02D0994F894F5
:0213F000FFCF2D
:1013F20052756E6E696E672E2E2E004C6967687488
:101402003A2000206C757800000000002401F700EB
:10141200CC00D400E700F600000000002F06AB0766
:08142200AF05CA05BC050D066B
:00000001FF
