:100000000C945A000C9482000C9482000C94820090
:100010000C9482000C9482000C9482000C94820058
:100020000C9482000C9482000C9482000C94820048
:100030000C9482000C9482000C9482000C94820038
:100040000C9457040C9482000C94C7060C94F90687
:100050000C9482000C9482000C9482000C94820018
:100060000C94AA020C948200000000080002010017
:100070000003040700000000000000000102040863
:100080001020408001020408102001020408102002
:10009000040404040404040402020202020203032E
:1000A0000303030300000000250028002B00F500D7
:1000B000C801290711241FBECFEFD8E0DEBFCDBF96
:1000C00011E0A0E0B1E0E6EDF7E102C005900D928D
:1000D000A037B107D9F722E0A0E7B1E001C01D9237
:1000E000A73DB207E1F710E0C4EBD0E004C02297CF
:1000F000FE010E94E50BCE3AD107C9F70E946D07B9
:100100000C94E90B0C94000026E040E855E260E016
:1001100070E08AE392E00E946B0660E071E08AE39F
:1001200092E00E94D70780E791E00C94DA0367E140
:1001300071E08AE392E00E94BA0780E791E00E94B2
:100140005404AB01BC0122E030E08AE392E00E945B
:10015000770962E271E08AE392E00E94BA0780E7E1
:1001600091E00E945104AB01BC0122E030E08AE33F
:1001700092E00E9477096FE271E08AE392E00E94C8
:10018000D70767E171E08AE392E00E94BA0780E74F
:1001900091E00E943B04AB01BC0122E030E08AE325
:1001A00092E00E94770962E371E08AE392E00E94A4
:1001B000BA0780E791E00E942504AB01BC0122E070
:1001C00030E08AE392E00E9477096FE371E08AE30E
:1001D00092E00E94D7078AE392E00E94C30764EF8F
:1001E00071E080E090E00C94C4046AE580E791E05F
:1001F0000C94D7038091A10190E02091A201821B71
:10020000910908952091A2018091A101281750F42D
:10021000E22FF0E0ED55FE4F808190E02F5F2093BC
:10022000A20108958FEF9FEF0895E091A2018091C0
:10023000A101E81730F4F0E0ED55FE4F808190E029
:1002400008958FEF9FEF08950895CF92DF92EF9278
:10025000FF920F931F93CF93DF937C01CB018A0111
:1002600020917D01222389F0EB016B01C40ED51E84
:10027000CC15DD0569F06991D701ED91FC910190F4
:10028000F081E02DC7010995F3CF642F0E94810210
:10029000C801DF91CF911F910F91FF90EF90DF90F8
:1002A000CF900895CF93DF931F92CDB7DEB76983C8
:1002B00020917D012223D1F020917E01203240F057
:1002C00021E030E0FC013383228380E090E015C020
:1002D00080917F01E82FF0E0E058FE4F99819083F4
:1002E0008F5F80937F0180937E0105C061E0CE0126
:1002F00001960E94810281E090E00F90DF91CF9102
:100300000895FC011382128248EE53E060E070E031
:10031000448355836683778386E491E09183808369
:1003200008951092A2011092A10110927F011092E3
:100330007E010C94CC01862F413208F040E263EA42
:1003400071E00E94EA011092A2018093A101089538
:1003500021E00C949B0181E080937D016093A001DA
:1003600010927F0110927E0108950F93062F21E0D5
:1003700040917E0160E871E08091A0010E942E0210
:1003800010927F0110927E0110927D010F910895CD
:1003900081E791E00C9481011092300281E080931A
:1003A0002E0210922D0261E082E10E94500561E070
:1003B00083E10E945005E9EBF0E080818E7F80832D
:1003C00080818D7F808380E28093B80085E4809374
:1003D000BC000895413208F03FC090913002911165
:1003E000FCCF91E09093300220932E022FEF2093C8
:1003F000C30110920802240F2093070290932F024A
:1004000090912F02880F892B80932F0280912D02CB
:10041000813041F410922D0280912F028093BB0015
:1004200085EC01C085EE8093BC0080913002813064
:10043000E1F380910802841710F44091080229E04A
:1004400032E0FB01D9018A2F821B841718F48D91A9
:100450008193F9CF842F089580E008950F9341325E
:1004600008F046C0909130029111FCCF92E0909339
:10047000300200932E029FEF9093C3011092080266
:1004800040930702FB0169E072E0DB019A2F961BA3
:10049000941718F491919D93F9CF10922F02909197
:1004A0002F02880F892B80932F0280912D0281309B
:1004B00041F410922D0280912F028093BB0085ECB5
:1004C00001C085EE8093BC00222321F08091300290
:1004D0008230E1F38091C3018F3F61F08091C301CD
:1004E000803251F08091C301803341F483E007C032
:1004F00081E005C080E003C082E001C084E00F918C
:100500000895613298F420913002243089F4609388
:10051000E501FC0187EE91E0DC012A2F281B26175C
:1005200018F421912D93F9CF80E0089581E008958A
:1005300082E0089585ED8093BC008091BC0084FD2D
:10054000FCCF10923002089585EC8093BC0010928D
:10055000300208951F920F920FB60F9211242F931D
:100560003F934F935F936F937F938F939F93AF933B
:10057000BF93EF93FF938091B900887F803609F491
:100580009CC068F5883209F45BC090F4803109F4AE
:1005900054C038F4882309F4F5C0883009F44DC0FC
:1005A000F5C0883109F44CC0803209F45DC0EEC05A
:1005B000803409F468C048F4803309F455C08833A6
:1005C00009F0E4C08093C301A8C0803509F44FC08E
:1005D000883509F45DC0883409F0D8C0D5C08839A1
:1005E00009F4C6C0A8F4883709F467C038F488361F
:1005F00009F463C0803709F460C0C8C0883809F4C2
:10060000B7C0803909F45FC0803809F0BFC05BC053
:10061000803B09F485C038F4803A09F466C0883A12
:1006200009F47EC0B3C0803C09F4A6C0883C09F43C
:10063000A3C0883B09F489C0A9C080912F0210C0D3
:100640009091080280910702981770F5E0910802D6
:1006500081E08E0F80930802F0E0E75FFD4F80811C
:100660008093BB0085EC85C08093C3018DC0E09171
:10067000080281E08E0F809308028091BB00F0E0B9
:10068000E75FFD4F808390910802809107026DC063
:10069000E091080281E08E0F809308028091BB00F8
:1006A000F0E0E75FFD4F808380912E0281116CC0E6
:1006B00081E080932D0284EA60C083E08093300261
:1006C0001092C401CFCF8091C401803208F050C095
:1006D000E091C40181E08E0F8093C4018091BB0042
:1006E000F0E0EB53FE4F8083BDCF8091C401803298
:1006F00030F4E091C401F0E0EB53FE4F10820E9411
:100700009A026091C40170E0E0912902F0912A02FE
:1007100085EC91E009951092C4010E94A40236C0B4
:1007200084E0809330021092E6011092E501E0919E
:100730002B02F0912C0209958091E501811105C0F1
:1007400081E08093E5011092E701E091E60181E00C
:100750008E0F8093E601F0E0E951FE4F8081809397
:10076000BB009091E6018091E501981708F47ACFDB
:1007700085E88093BC000AC085EC8093BC00109291
:10078000300204C01092C3010E949A02FF91EF91BF
:10079000BF91AF919F918F917F916F915F914F9199
:1007A0003F912F910F900FBE0F901F901895FC0155
:1007B0006083089581E791E00E94910181E00895AE
:1007C0001F93CF93DF93EC01162F688181E791E0AF
:1007D0000E94AB01612F81E791E00E94520160E02D
:1007E00081E791E00E94B50143E0688181E791E0F3
:1007F0000E94A80181E791E00E940201EC0181E7DB
:1008000091E00E94020120E030E0382FC22BD32B70
:1008100081E791E00E940201CE01DF91CF911F910B
:1008200008950E94E003BC0180E090E00E947C0AF1
:100830002AE037ED43EA5CE30E94320B23E333E91D
:1008400048E853E40E947A09089567E00E94110481
:1008500020E030E040E151E40E94320B20E030E043
:1008600040EA50E40E94E30920E030E040E052E436
:100870000E947B09089566E00E94110420E030E0A8
:1008800040E151E40E94320B20E030E040EA50E4C5
:100890000E94E30920E030E040E052E40E947B093E
:1008A000089567E00C94110466E00C9411041F9203
:1008B0000F920FB60F9211242F933F938F939F9314
:1008C000AF93BF938091320290913302A091340292
:1008D000B09135023091310226E0230F2D3720F4FC
:1008E0000296A11DB11D05C029E8230F0396A11D85
:1008F000B11D209331028093320290933302A09372
:100900003402B09335028091360290913702A09163
:100910003802B09139020196A11DB11D80933602B3
:1009200090933702A0933802B0933902BF91AF91F0
:100930009F918F913F912F910F900FBE0F901F901D
:1009400018953FB7F8948091360290913702A091A4
:100950003802B091390226B5A89B05C02F3F19F087
:100960000196A11DB11D3FBF6627782F892F9A2FB1
:10097000620F711D811D911D43E0660F771F881F57
:10098000991F4A95D1F70895CF92DF92EF92FF9287
:10099000CF93DF936B017C010E94A104EB01C11492
:1009A000D104E104F10489F00E9479090E94A104B4
:1009B0006C1B7D0B683E734090F381E0C81AD10830
:1009C000E108F108C851DC4FEACFDF91CF91FF90E9
:1009D000EF90DF90CF900895789484B5826084BDC5
:1009E00084B5816084BD85B5826085BD85B5816033
:1009F00085BDEEE6F0E0808181608083E1E8F0E093
:100A00001082808182608083808181608083E0E8C1
:100A1000F0E0808181608083E1EBF0E080818460A0
:100A20008083E0EBF0E0808181608083EAE7F0E0A2
:100A30008081846080838081826080838081816006
:100A400080838081806880831092C1000895833004
:100A500081F028F4813099F08230A1F00895873038
:100A6000A9F08830B9F08430D1F4809180008F7D76
:100A700003C0809180008F7780938000089584B5B3
:100A80008F7702C084B58F7D84BD08958091B000BA
:100A90008F7703C08091B0008F7D8093B000089560
:100AA0000F931F93CF93DF931F92CDB7DEB7282FFD
:100AB00030E0F901E859FF4F8491F901E458FF4F04
:100AC0001491F901E057FF4F04910023C9F08823E6
:100AD00021F069830E9427056981E02FF0E0EE0F85
:100AE000FF1FEC55FF4FA591B4919FB7F8948C91DF
:100AF000611103C01095812301C0812B8C939FBF8E
:100B00000F90DF91CF911F910F910895FC01818D7E
:100B1000228D90E0805C9F4F821B910960E470E021
:100B20000E94990B0895FC01918D828D981731F0E8
:100B3000828DE80FF11D858D90E008958FEF9FEF76
:100B40000895FC01918D828D981761F0828DDF01EF
:100B5000A80FB11D5D968C91928D9F5F9F73928FB0
:100B600090E008958FEF9FEF08958FE197E0892B34
:100B700049F080E090E0892B29F00E941F07811145
:100B80000C9400000895FC01848DDF01A80FB11DB5
:100B9000A35ABF4F2C91848D90E001968F739927B3
:100BA000848FA689B7892C93A089B1898C918064A0
:100BB0008C93938D848D981306C00288F389E02D61
:100BC00080818F7D80830895CF93DF93EC01888DA2
:100BD0008823C9F0EA89FB89808185FD05C0A88941
:100BE000B9898C9186FD0FC00FB607FCF5CF8081C7
:100BF00085FFF2CFA889B9898C9185FFEDCFCE0111
:100C00000E94C305E7CFDF91CF910895CF92DF9285
:100C1000FF920F931F93CF93DF931F92CDB7DEB751
:100C20006C01DC015B969C915B975C968C915C9768
:100C3000981307C05096ED91FC915197808185FDE6
:100C400032C0F601038D10E00F5F1F4F0F731127A5
:100C5000F02EF601848DF81211C00FB607FCF9CF03
:100C6000D6015096ED91FC915197808185FFF1CF8F
:100C7000C60169830E94C3056981EBCF838DE80FAC
:100C8000F11DE35AFF4F6083D6015B960C935B978F
:100C90005296ED91FC91539780818062808381E030
:100CA00058968C930DC0D6015696ED91FC915797AE
:100CB00060835096ED91FC91519780818064808390
:100CC00081E090E00F90DF91CF911F910F91FF9005
:100CD000DF90CF900895BF92CF92DF92EF92FF9274
:100CE000CF93DF93EC016A017B01B22E60E874E8D8
:100CF0008EE190E0A70196010E94AD0B21503109D1
:100D0000410951095695479537952795E889F989FD
:100D100082E08083211580E1380798F0E889F9891D
:100D2000108260E472E48FE090E0A70196010E94D7
:100D3000AD0B215031094109510956954795379519
:100D40002795EC85FD853083EE85FF852083188E01
:100D5000EC89FD89B082EA89FB898081806180838A
:100D6000EA89FB89808188608083EA89FB898081A8
:100D700080688083EA89FB8980818F7D8083DF9111
:100D8000CF91FF90EF90DF90CF90BF9008951F928A
:100D90000F920FB60F9211242F938F939F93EF937F
:100DA000FF93E0914A02F0914B028081E091500262
:100DB000F091510282FD12C09081809153028F5FA9
:100DC0008F7320915402821751F0E0915302F0E0AA
:100DD000E65CFD4F958F8093530201C08081FF91A7
:100DE000EF919F918F912F910F900FBE0F901F90B9
:100DF00018951F920F920FB60F9211242F933F93C5
:100E00004F935F936F937F938F939F93AF93BF9312
:100E1000EF93FF938AE392E00E94C305FF91EF9165
:100E2000BF91AF919F918F917F916F915F914F9102
:100E30003F912F910F900FBE0F901F9018958AE34E
:100E400092E00E94860521E0892B09F420E0822FA0
:100E5000089510923D0210923C0288EE93E0A0E0CB
:100E6000B0E080933E0290933F02A0934002B09383
:100E7000410286E591E090933B0280933A0285EC33
:100E800090E0909347028093460284EC90E0909328
:100E900049028093480280EC90E090934B0280934B
:100EA0004A0281EC90E090934D0280934C0282ECD8
:100EB00090E090934F0280934E0286EC90E09093E6
:100EC00051028093500210925302109254021092D9
:100ED000550210925602089508950E94EC040E9453
:100EE0006C070E948400C5EBD5E00E949700209714
:100EF000E1F30E94B505F9CFCF92DF92EF92FF9216
:100F00000F931F93CF93DF936C017A01EB01E60EF1
:100F1000F71E00E010E0CE15DF0561F06991D60103
:100F2000ED91FC910190F081E02DC6010995080F2B
:100F3000191FF1CFC801DF91CF911F910F91FF9041
:100F4000EF90DF90CF9008956115710581F0DB017E
:100F50000D900020E9F7AD0141505109461B570B98
:100F6000DC01ED91FC910280F381E02D099480E099
:100F700090E008950C94A407DC01ED91FC910190A0
:100F8000F081E02D09940F931F93CF93DF93EC0131
:100F90006DE00E94BC078C016AE0CE010E94BC0794
:100FA000800F911FDF91CF911F910F9108950F93A3
:100FB0001F93CF93DF93EC010E94A4078C01CE0115
:100FC0000E94C307800F911FDF91CF911F910F9156
:100FD00008958F929F92AF92BF92CF92DF92EF923D
:100FE000FF920F931F93CF93DF93CDB7DEB7A197F7
:100FF0000FB6F894DEBF0FBECDBF7C01C42EE52F27
:10100000CB01D22E19A221E02D1510F02AE0D22E0C
:101010008E010F5D1F4F8D2C912CA12CB12C6C2DAE
:101020007E2FA50194010E94AD0B8C2DD29E8019BC
:101030001124015011098A3014F4805D01C0895CCB
:10104000F8018083211531054105510521F0C22E9B
:10105000E32FCA01E4CFB801C7010E94A407A196FB
:101060000FB6F894DEBF0FBECDBFDF91CF911F91B9
:101070000F91FF90EF90DF90CF90BF90AF909F9037
:101080008F900895CF92DF92EF92FF920F931F936C
:10109000CF93DF93EC016A017B012115310579F4CF
:1010A000E881F9810190F081E02D642FDF91CF91EB
:1010B0001F910F91FF90EF90DF90CF9009942A300D
:1010C0003105E9F477FF1AC06DE20E94BC078C017C
:1010D00044275527BA014C195D096E097F092AE09A
:1010E000CE010E94E907800F911FDF91CF911F91E0
:1010F0000F91FF90EF90DF90CF9008952AE0B70115
:10110000A601CE01DF91CF911F910F91FF90EF903B
:10111000DF90CF900C94E9074F925F926F927F928D
:101120008F929F92AF92BF92CF92DF92EF92FF92F7
:101130000F931F93CF93DF93EC016A017B01B22ED3
:101140009A01AB01C701B6010E94950B882319F0E3
:1011500062E671E027C026013701E89477F82FEFA7
:101160003FEF4FE75FE7C301B2010E94950B81118A
:101170000DC02FEF3FEF4FE75FE7C301B2010E94C1
:10118000DF0918161CF466E671E00CC02FEF3FEF84
:101190004FE75FE4C701B6010E942E0B1816ACF4AE
:1011A0006AE671E0CE01DF91CF911F910F91FF9020
:1011B000EF90DF90CF90BF90AF909F908F907F90F7
:1011C0006F905F904F900C94A4072FEF3FEF4FE785
:1011D0005FECC701B6010E94DF0987FDE1CF20E087
:1011E00030E0A901C701B6010E94DF0987FF0AC0EC
:1011F0006DE2CE010E94BC078C01F7FAF094F7F87B
:10120000F09402C000E010E0A12C60E070E080E00B
:101210009FE3AB1441F020E030E040E251E40E9453
:10122000E309A394F6CF9B01AC01C701B6010E946C
:101230007B096B017C010E94500A2B013C010E943A
:101240007C0A9B01AC01C701B6010E947A096B01BF
:101250007C012AE0B301A201CE010E94E907080F38
:10126000191FBB2039F06EE671E0CE010E94A40781
:10127000080F191F7B2C772041F120E030E040E27D
:1012800051E4C701B6010E94320B6B017C010E9440
:101290004B0A4B01AA2497FCA094BA2C2AE030E018
:1012A000B501A401CE010E944208080F191FC50113
:1012B000B4010E947E0A9B01AC01C701B6010E94E5
:1012C0007A096B017C017A94D6CFC801DF91CF9166
:1012D0001F910F91FF90EF90DF90CF90BF90AF9054
:1012E0009F908F907F906F905F904F9008950C9497
:1012F0008C0808955058BB27AA270ED075C166D117
:1013000030F06BD120F031F49F3F11F41EF45BC13B
:101310000EF4E095E7FB51C1E92F77D180F3BA17BE
:10132000620773078407950718F071F49EF58FC163
:101330000EF4E0950B2EBA2FA02D0B01B9019001F0
:101340000C01CA01A0011124FF27591B99F0593F34
:1013500050F4503E68F11A16F040A22F232F342F7C
:101360004427585FF3CF469537952795A795F040CA
:101370005395C9F77EF41F16BA0B620B730B840BDF
:10138000BAF09150A1F0FF0FBB1F661F771F881F97
:10139000C2F70EC0BA0F621F731F841F48F48795EF
:1013A00077956795B795F7959E3F08F0B3CF9395DE
:1013B000880F08F09927EE0F979587950895D9D053
:1013C00008F481E008950CD00FC107D140F0FED0A1
:1013D00030F021F45F3F19F0F0C0511139C1F3C072
:1013E00014D198F39923C9F35523B1F3951B550BE9
:1013F000BB27AA2762177307840738F09F5F5F4FE8
:10140000220F331F441FAA1FA9F333D00E2E3AF028
:10141000E0E830D091505040E695001CCAF729D042
:10142000FE2F27D0660F771F881FBB1F2617370791
:101430004807AB07B0E809F0BB0B802DBF01FF27C1
:1014400093585F4F2AF09E3F510568F0B6C000C127
:101450005F3FECF3983EDCF3869577956795B795FB
:10146000F7959F5FC9F7880F911D9695879597F916
:101470000895E1E0660F771F881FBB1F621773078F
:101480008407BA0720F0621B730B840BBA0BEE1FA4
:1014900088F7E095089504D06894B111D9C00895F3
:1014A000BCD088F09F5790F0B92F9927B751A0F082
:1014B000D1F0660F771F881F991F1AF0BA95C9F7E8
:1014C00012C0B13081F0C3D0B1E00895C0C0672F21
:1014D000782F8827B85F39F0B93FCCF38695779598
:1014E0006795B395D9F73EF4909580957095619581
:1014F0007F4F8F4F9F4F0895E89409C097FB3EF4AC
:1015000090958095709561957F4F8F4F9F4F992350
:10151000A9F0F92F96E9BB279395F69587957795CE
:101520006795B795F111F8CFFAF4BB0F11F460FF8E
:101530001BC06F5F7F4F8F4F9F4F16C0882311F0E6
:1015400096E911C0772321F09EE8872F762F05C0FA
:10155000662371F096E8862F70E060E02AF09A9595
:10156000660F771F881FDAF7880F9695879597F98A
:101570000895990F0008550FAA0BE0E8FEEF161624
:101580001706E807F907C0F012161306E407F50777
:1015900098F0621B730B840B950B39F40A2661F0EB
:1015A000232B242B252B21F408950A2609F4A1408E
:1015B000A6958FEF811D811D089597F99F6780E89B
:1015C00070E060E008959FEF80EC089500240A9495
:1015D0001616170618060906089500240A9412160E
:1015E0001306140605060895092E0394000C11F441
:1015F000882352F0BB0F40F4BF2B11F460FF04C0EE
:101600006F5F7F4F8F4F9F4F089557FD9058440F46
:10161000551F59F05F3F71F04795880F97FB991F51
:1016200061F09F3F79F0879508951216130614060E
:10163000551FF2CF4695F1DF08C01616170618069B
:10164000991FF1CF86957105610508940895E89476
:10165000BB2766277727CB0197F908958ADF08F41F
:101660008FEF08950BD0C0CFB1DF28F0B6DF18F0B0
:10167000952309F0A2CFA7CF1124EACFC6DFA0F3AC
:10168000959FD1F3950F50E0551F629FF001729F17
:10169000BB27F00DB11D639FAA27F00DB11DAA1F36
:1016A000649F6627B00DA11D661F829F2227B00D83
:1016B000A11D621F739FB00DA11D621F839FA00D0E
:1016C000611D221F749F3327A00D611D231F849F5E
:1016D000600D211D822F762F6A2F11249F575040B5
:1016E0008AF0E1F088234AF0EE0FFF1FBB1F661F50
:1016F000771F881F91505040A9F79E3F510570F009
:101700005CCFA6CF5F3FECF3983EDCF386957795F0
:101710006795B795F795E7959F5FC1F7FE2B880F03
:10172000911D9695879597F9089523DF880B990B5E
:10173000089597FB072E16F4009407D077FD09D083
:101740000E94CF0B07FC05D03EF4909581959F4FEA
:101750000895709561957F4F0895A1E21A2EAA1BF6
:10176000BB1BFD010DC0AA1FBB1FEE1FFF1FA21751
:10177000B307E407F50720F0A21BB30BE40BF50B4E
:10178000661F771F881F991F1A9469F760957095D7
:10179000809590959B01AC01BD01CF010895AA1BD6
:1017A000BB1B51E107C0AA1FBB1FA617B70710F04C
:1017B000A61BB70B881F991F5A95A9F7809590957E
:1017C000BC01CD010895EE0FFF1F0590F491E02DAF
:0617D0000994F894FFCF1C
:1017D6004164616672756974204D4C5839303631F2
:1017E60034207465737400416D6269656E74203DC2
:1017F60020002A43094F626A656374203D20002A4F
:1018060043002A46094F626A656374203D20002A18
:1018160046000000000052012501FA0002011501F0
:1018260024010000000006067C078605A105930535
:10183600E4056E616E00696E66006F7666002E00C6
:00000001FF
